{
  "_format": "hh-sol-artifact-1",
  "contractName": "MorphingBlock",
  "sourceName": "contracts/MorphingBlock.sol",
  "abi": [
    {
      "anonymous": false,
      "inputs": [
        {
          "indexed": true,
          "internalType": "address",
          "name": "previousOwner",
          "type": "address"
        },
        {
          "indexed": true,
          "internalType": "address",
          "name": "newOwner",
          "type": "address"
        }
      ],
      "name": "OwnershipTransferred",
      "type": "event"
    },
    {
      "anonymous": false,
      "inputs": [
        {
          "indexed": false,
          "internalType": "string",
          "name": "macAddr",
          "type": "string"
        },
        {
          "indexed": false,
          "internalType": "uint256",
          "name": "amount",
          "type": "uint256"
        },
        {
          "indexed": false,
          "internalType": "uint256",
          "name": "txID",
          "type": "uint256"
        }
      ],
      "name": "onInsertCoin",
      "type": "event"
    },
    {
      "anonymous": false,
      "inputs": [
        {
          "indexed": false,
          "internalType": "address",
          "name": "userAddr",
          "type": "address"
        },
        {
          "indexed": false,
          "internalType": "uint256",
          "name": "tokenType",
          "type": "uint256"
        },
        {
          "indexed": false,
          "internalType": "uint256",
          "name": "amount",
          "type": "uint256"
        }
      ],
      "name": "onRewardMeritSuccess",
      "type": "event"
    },
    {
      "inputs": [],
      "name": "MAX_SHARE_AMOUNT",
      "outputs": [
        {
          "internalType": "uint256",
          "name": "",
          "type": "uint256"
        }
      ],
      "stateMutability": "view",
      "type": "function"
    },
    {
      "inputs": [],
      "name": "TOKEN_AMOUNT",
      "outputs": [
        {
          "internalType": "uint256",
          "name": "",
          "type": "uint256"
        }
      ],
      "stateMutability": "view",
      "type": "function"
    },
    {
      "inputs": [],
      "name": "TRANSFER_INTERVAL",
      "outputs": [
        {
          "internalType": "uint256",
          "name": "",
          "type": "uint256"
        }
      ],
      "stateMutability": "view",
      "type": "function"
    },
    {
      "inputs": [
        {
          "internalType": "string",
          "name": "macAddress",
          "type": "string"
        },
        {
          "internalType": "uint256",
          "name": "inShareAmount",
          "type": "uint256"
        },
        {
          "internalType": "address",
          "name": "to",
          "type": "address"
        }
      ],
      "name": "addDeviceHolder",
      "outputs": [],
      "stateMutability": "nonpayable",
      "type": "function"
    },
    {
      "inputs": [
        {
          "internalType": "string",
          "name": "",
          "type": "string"
        }
      ],
      "name": "deviceDic",
      "outputs": [
        {
          "internalType": "address",
          "name": "owner",
          "type": "address"
        },
        {
          "internalType": "uint256",
          "name": "tokenBalance",
          "type": "uint256"
        },
        {
          "internalType": "uint256",
          "name": "regTime",
          "type": "uint256"
        },
        {
          "internalType": "bool",
          "name": "bValid",
          "type": "bool"
        }
      ],
      "stateMutability": "view",
      "type": "function"
    },
    {
      "inputs": [
        {
          "internalType": "string",
          "name": "macAddress",
          "type": "string"
        }
      ],
      "name": "getDevice",
      "outputs": [
        {
          "components": [
            {
              "internalType": "address",
              "name": "owner",
              "type": "address"
            },
            {
              "components": [
                {
                  "internalType": "address",
                  "name": "holder",
                  "type": "address"
                },
                {
                  "internalType": "uint256",
                  "name": "shareAmount",
                  "type": "uint256"
                }
              ],
              "internalType": "struct MorphingBlock.ShareInfo[]",
              "name": "shareList",
              "type": "tuple[]"
            },
            {
              "internalType": "uint256",
              "name": "tokenBalance",
              "type": "uint256"
            },
            {
              "internalType": "uint256",
              "name": "regTime",
              "type": "uint256"
            },
            {
              "internalType": "bool",
              "name": "bValid",
              "type": "bool"
            }
          ],
          "internalType": "struct MorphingBlock.DeviceInfo",
          "name": "",
          "type": "tuple"
        }
      ],
      "stateMutability": "view",
      "type": "function"
    },
    {
      "inputs": [
        {
          "internalType": "uint256",
          "name": "startIdx",
          "type": "uint256"
        }
      ],
      "name": "getDeviceList",
      "outputs": [
        {
          "internalType": "uint256",
          "name": "",
          "type": "uint256"
        },
        {
          "components": [
            {
              "internalType": "address",
              "name": "owner",
              "type": "address"
            },
            {
              "components": [
                {
                  "internalType": "address",
                  "name": "holder",
                  "type": "address"
                },
                {
                  "internalType": "uint256",
                  "name": "shareAmount",
                  "type": "uint256"
                }
              ],
              "internalType": "struct MorphingBlock.ShareInfo[]",
              "name": "shareList",
              "type": "tuple[]"
            },
            {
              "internalType": "uint256",
              "name": "tokenBalance",
              "type": "uint256"
            },
            {
              "internalType": "uint256",
              "name": "regTime",
              "type": "uint256"
            },
            {
              "internalType": "bool",
              "name": "bValid",
              "type": "bool"
            }
          ],
          "internalType": "struct MorphingBlock.DeviceInfo[]",
          "name": "",
          "type": "tuple[]"
        }
      ],
      "stateMutability": "view",
      "type": "function"
    },
    {
      "inputs": [
        {
          "internalType": "address",
          "name": "userAddr",
          "type": "address"
        }
      ],
      "name": "getUser",
      "outputs": [
        {
          "components": [
            {
              "internalType": "address",
              "name": "owner",
              "type": "address"
            },
            {
              "internalType": "uint256",
              "name": "tokenBalance",
              "type": "uint256"
            },
            {
              "internalType": "uint256",
              "name": "lastTransferTime",
              "type": "uint256"
            }
          ],
          "internalType": "struct MorphingBlock.UserInfo",
          "name": "",
          "type": "tuple"
        }
      ],
      "stateMutability": "view",
      "type": "function"
    },
    {
      "inputs": [
        {
          "internalType": "uint256",
          "name": "startIdx",
          "type": "uint256"
        }
      ],
      "name": "getUserList",
      "outputs": [
        {
          "internalType": "uint256",
          "name": "",
          "type": "uint256"
        },
        {
          "components": [
            {
              "internalType": "address",
              "name": "owner",
              "type": "address"
            },
            {
              "internalType": "uint256",
              "name": "tokenBalance",
              "type": "uint256"
            },
            {
              "internalType": "uint256",
              "name": "lastTransferTime",
              "type": "uint256"
            }
          ],
          "internalType": "struct MorphingBlock.UserInfo[]",
          "name": "",
          "type": "tuple[]"
        }
      ],
      "stateMutability": "view",
      "type": "function"
    },
    {
      "inputs": [
        {
          "internalType": "string",
          "name": "macAddress",
          "type": "string"
        },
        {
          "internalType": "uint256",
          "name": "inAmount",
          "type": "uint256"
        }
      ],
      "name": "insertCoin",
      "outputs": [],
      "stateMutability": "nonpayable",
      "type": "function"
    },
    {
      "inputs": [],
      "name": "owner",
      "outputs": [
        {
          "internalType": "address",
          "name": "",
          "type": "address"
        }
      ],
      "stateMutability": "view",
      "type": "function"
    },
    {
      "inputs": [
        {
          "internalType": "string",
          "name": "macAddress",
          "type": "string"
        },
        {
          "internalType": "uint256",
          "name": "initialTokens",
          "type": "uint256"
        },
        {
          "internalType": "address",
          "name": "to",
          "type": "address"
        }
      ],
      "name": "registerDevice",
      "outputs": [],
      "stateMutability": "nonpayable",
      "type": "function"
    },
    {
      "inputs": [],
      "name": "renounceOwnership",
      "outputs": [],
      "stateMutability": "nonpayable",
      "type": "function"
    },
    {
      "inputs": [
        {
          "internalType": "string",
          "name": "macAddress",
          "type": "string"
        },
        {
          "internalType": "uint256",
          "name": "inAmount",
          "type": "uint256"
        },
        {
          "internalType": "address",
          "name": "to",
          "type": "address"
        },
        {
          "internalType": "uint256",
          "name": "tokenType",
          "type": "uint256"
        },
        {
          "internalType": "uint256",
          "name": "txID",
          "type": "uint256"
        }
      ],
      "name": "rewardMerit",
      "outputs": [],
      "stateMutability": "nonpayable",
      "type": "function"
    },
    {
      "inputs": [
        {
          "internalType": "address",
          "name": "intMeritTokenInst",
          "type": "address"
        }
      ],
      "name": "setMeritSlave",
      "outputs": [],
      "stateMutability": "nonpayable",
      "type": "function"
    },
    {
      "inputs": [
        {
          "internalType": "address",
          "name": "newOwner",
          "type": "address"
        }
      ],
      "name": "transferOwnership",
      "outputs": [],
      "stateMutability": "nonpayable",
      "type": "function"
    },
    {
      "inputs": [
        {
          "internalType": "uint256",
          "name": "",
          "type": "uint256"
        }
      ],
      "name": "txInfoDic",
      "outputs": [
        {
          "internalType": "bool",
          "name": "bValid",
          "type": "bool"
        },
        {
          "internalType": "bool",
          "name": "bFinished",
          "type": "bool"
        },
        {
          "internalType": "uint256",
          "name": "txID",
          "type": "uint256"
        },
        {
          "internalType": "uint256",
          "name": "amount",
          "type": "uint256"
        },
        {
          "internalType": "uint256",
          "name": "txTime",
          "type": "uint256"
        }
      ],
      "stateMutability": "view",
      "type": "function"
    },
    {
      "inputs": [
        {
          "internalType": "address",
          "name": "",
          "type": "address"
        }
      ],
      "name": "userTokenDic",
      "outputs": [
        {
          "internalType": "address",
          "name": "owner",
          "type": "address"
        },
        {
          "internalType": "uint256",
          "name": "tokenBalance",
          "type": "uint256"
        },
        {
          "internalType": "uint256",
          "name": "lastTransferTime",
          "type": "uint256"
        }
      ],
      "stateMutability": "view",
      "type": "function"
    }
  ],
  "bytecode": "0x60806040526000600c553480156200001657600080fd5b50620000376200002b6200003d60201b60201c565b6200004560201b60201c565b62000109565b600033905090565b60008060009054906101000a900473ffffffffffffffffffffffffffffffffffffffff169050816000806101000a81548173ffffffffffffffffffffffffffffffffffffffff021916908373ffffffffffffffffffffffffffffffffffffffff1602179055508173ffffffffffffffffffffffffffffffffffffffff168173ffffffffffffffffffffffffffffffffffffffff167f8be0079c531659141344cd1fd0a4f28419497f9722a3daafe3b4186f6b6457e060405160405180910390a35050565b612b5e80620001196000396000f3fe608060405234801561001057600080fd5b50600436106101165760003560e01c80638da5cb5b116100a2578063b4c6022f11610071578063b4c6022f146102fe578063b71a03461461031a578063eb863df81461034a578063f2fde38b14610368578063fe3dcf081461038457610116565b80638da5cb5b1461026057806391bbec1a1461027e578063a82f6379146102af578063a992be06146102cb57610116565b80636f77926b116100e95780636f77926b146101a5578063702cd649146101d5578063715018a6146101f1578063874c691d146101fb5780638b96f8681461022c57610116565b8063048a1a9d1461011b5780630c9b46c9146101395780633ce782f41461016b5780636a43c06f14610189575b600080fd5b6101236103a0565b6040516101309190611a96565b60405180910390f35b610153600480360381019061014e9190611b23565b6103a5565b60405161016293929190611b5f565b60405180910390f35b6101736103ef565b6040516101809190611a96565b60405180910390f35b6101a3600480360381019061019e9190611d08565b6103f4565b005b6101bf60048036038101906101ba9190611b23565b6105a9565b6040516101cc9190611dc4565b60405180910390f35b6101ef60048036038101906101ea9190611ddf565b61066c565b005b6101f9610b86565b005b61021560048036038101906102109190611e76565b610b9a565b6040516102239291906120d4565b60405180910390f35b61024660048036038101906102419190611e76565b610e55565b604051610257959493929190612113565b60405180910390f35b610268610ea5565b6040516102759190612166565b60405180910390f35b61029860048036038101906102939190611e76565b610ece565b6040516102a6929190612272565b60405180910390f35b6102c960048036038101906102c49190611b23565b6110f1565b005b6102e560048036038101906102e091906122a2565b611135565b6040516102f594939291906122eb565b60405180910390f35b61031860048036038101906103139190612330565b6111a8565b005b610334600480360381019061032f91906122a2565b6112eb565b6040516103419190612415565b60405180910390f35b610352611467565b60405161035f9190611a96565b60405180910390f35b610382600480360381019061037d9190611b23565b61146e565b005b61039e60048036038101906103999190612330565b6114f2565b005b600a81565b60076020528060005260406000206000915090508060000160009054906101000a900473ffffffffffffffffffffffffffffffffffffffff16908060010154908060020154905083565b600581565b6103fc611703565b60068260405161040c91906124b1565b908152602001604051809103902060040160009054906101000a900460ff1661046a576040517f08c379a000000000000000000000000000000000000000000000000000000000815260040161046190612525565b60405180910390fd5b60005b60068360405161047d91906124b1565b9081526020016040518091039020600101805490508110156104aa57806104a390612574565b905061046d565b506040518060a00160405280600115158152602001600015158152602001600c5481526020018281526020014281525060086000600c54815260200190815260200160002060008201518160000160006101000a81548160ff02191690831515021790555060208201518160000160016101000a81548160ff0219169083151502179055506040820151816001015560608201518160020155608082015181600301559050507f9acf8d706516fda76dd420e692f46d039019b6dc9e8e6586f814f3db79594e528282600c54604051610585939291906125f6565b60405180910390a1600c60008154809291906105a090612574565b91905055505050565b6105b161184d565b600760008373ffffffffffffffffffffffffffffffffffffffff1673ffffffffffffffffffffffffffffffffffffffff1681526020019081526020016000206040518060600160405290816000820160009054906101000a900473ffffffffffffffffffffffffffffffffffffffff1673ffffffffffffffffffffffffffffffffffffffff1673ffffffffffffffffffffffffffffffffffffffff168152602001600182015481526020016002820154815250509050919050565b610674611703565b600073ffffffffffffffffffffffffffffffffffffffff168373ffffffffffffffffffffffffffffffffffffffff1614156106e4576040517f08c379a00000000000000000000000000000000000000000000000000000000081526004016106db90612680565b60405180910390fd5b6006856040516106f491906124b1565b908152602001604051809103902060040160009054906101000a900460ff16610752576040517f08c379a000000000000000000000000000000000000000000000000000000000815260040161074990612525565b60405180910390fd5b6008600082815260200190815260200160002060000160009054906101000a900460ff166107b5576040517f08c379a00000000000000000000000000000000000000000000000000000000081526004016107ac906126ec565b60405180910390fd5b6008600082815260200190815260200160002060000160019054906101000a900460ff1615610819576040517f08c379a000000000000000000000000000000000000000000000000000000000815260040161081090612758565b60405180910390fd5b600073ffffffffffffffffffffffffffffffffffffffff16600760008573ffffffffffffffffffffffffffffffffffffffff1673ffffffffffffffffffffffffffffffffffffffff16815260200190815260200160002060000160009054906101000a900473ffffffffffffffffffffffffffffffffffffffff1673ffffffffffffffffffffffffffffffffffffffff1614156109e45760405180606001604052808473ffffffffffffffffffffffffffffffffffffffff168152602001600081526020016000815250600760008573ffffffffffffffffffffffffffffffffffffffff1673ffffffffffffffffffffffffffffffffffffffff16815260200190815260200160002060008201518160000160006101000a81548173ffffffffffffffffffffffffffffffffffffffff021916908373ffffffffffffffffffffffffffffffffffffffff1602179055506020820151816001015560408201518160020155905050600a839080600181540180825580915050600190039060005260206000200160009091909190916101000a81548173ffffffffffffffffffffffffffffffffffffffff021916908373ffffffffffffffffffffffffffffffffffffffff1602179055505b83600760008573ffffffffffffffffffffffffffffffffffffffff1673ffffffffffffffffffffffffffffffffffffffff1681526020019081526020016000206001016000828254610a369190612778565b9250508190555042600760008573ffffffffffffffffffffffffffffffffffffffff1673ffffffffffffffffffffffffffffffffffffffff16815260200190815260200160002060020181905550600d60009054906101000a900473ffffffffffffffffffffffffffffffffffffffff1673ffffffffffffffffffffffffffffffffffffffff1663731133e98484876040518463ffffffff1660e01b8152600401610ae393929190612805565b600060405180830381600087803b158015610afd57600080fd5b505af1158015610b11573d6000803e3d6000fd5b5050505060016008600083815260200190815260200160002060000160016101000a81548160ff0219169083151502179055507f163d1624ad96d90fd94c64ab24f3ef783b63587be7a9584e223fc05c58a3930f838386604051610b7793929190611b5f565b60405180910390a15050505050565b610b8e611703565b610b986000611781565b565b600060606000600a84610bad9190612778565b90506009805490508111610bc15780610bc8565b6009805490505b905080841115610c0d576040517f08c379a0000000000000000000000000000000000000000000000000000000008152600401610c049061289b565b60405180910390fd5b60008482610c1b91906128bb565b67ffffffffffffffff811115610c3457610c33611bb1565b5b604051908082528060200260200182016040528015610c6d57816020015b610c5a611884565b815260200190600190039081610c525790505b50905060008590505b82811015610e4257600660098281548110610c9457610c936128ef565b5b90600052602060002001604051610cab9190612a13565b90815260200160405180910390206040518060a00160405290816000820160009054906101000a900473ffffffffffffffffffffffffffffffffffffffff1673ffffffffffffffffffffffffffffffffffffffff1673ffffffffffffffffffffffffffffffffffffffff16815260200160018201805480602002602001604051908101604052809291908181526020016000905b82821015610dd157838290600052602060002090600202016040518060400160405290816000820160009054906101000a900473ffffffffffffffffffffffffffffffffffffffff1673ffffffffffffffffffffffffffffffffffffffff1673ffffffffffffffffffffffffffffffffffffffff16815260200160018201548152505081526020019060010190610d3f565b50505050815260200160028201548152602001600382015481526020016004820160009054906101000a900460ff161515151581525050828783610e1591906128bb565b81518110610e2657610e256128ef565b5b602002602001018190525080610e3b90612574565b9050610c76565b5060098054905081935093505050915091565b60086020528060005260406000206000915090508060000160009054906101000a900460ff16908060000160019054906101000a900460ff16908060010154908060020154908060030154905085565b60008060009054906101000a900473ffffffffffffffffffffffffffffffffffffffff16905090565b600060606000600a84610ee19190612778565b9050600a805490508111610ef55780610efc565b600a805490505b905080841115610f41576040517f08c379a0000000000000000000000000000000000000000000000000000000008152600401610f389061289b565b60405180910390fd5b60008482610f4f91906128bb565b67ffffffffffffffff811115610f6857610f67611bb1565b5b604051908082528060200260200182016040528015610fa157816020015b610f8e61184d565b815260200190600190039081610f865790505b50905060008590505b828110156110de5760076000600a8381548110610fca57610fc96128ef565b5b9060005260206000200160009054906101000a900473ffffffffffffffffffffffffffffffffffffffff1673ffffffffffffffffffffffffffffffffffffffff1673ffffffffffffffffffffffffffffffffffffffff1681526020019081526020016000206040518060600160405290816000820160009054906101000a900473ffffffffffffffffffffffffffffffffffffffff1673ffffffffffffffffffffffffffffffffffffffff1673ffffffffffffffffffffffffffffffffffffffff168152602001600182015481526020016002820154815250508287836110b191906128bb565b815181106110c2576110c16128ef565b5b6020026020010181905250806110d790612574565b9050610faa565b50600a8054905081935093505050915091565b80600d60006101000a81548173ffffffffffffffffffffffffffffffffffffffff021916908373ffffffffffffffffffffffffffffffffffffffff16021790555050565b6006818051602081018201805184825260208301602085012081835280955050505050506000915090508060000160009054906101000a900473ffffffffffffffffffffffffffffffffffffffff16908060020154908060030154908060040160009054906101000a900460ff16905084565b6111b0611703565b6006836040516111c091906124b1565b908152602001604051809103902060040160009054906101000a900460ff1661121e576040517f08c379a000000000000000000000000000000000000000000000000000000000815260040161121590612525565b60405180910390fd5b60068360405161122e91906124b1565b908152602001604051809103902060010160405180604001604052808373ffffffffffffffffffffffffffffffffffffffff16815260200184815250908060018154018082558091505060019003906000526020600020906002020160009091909190915060008201518160000160006101000a81548173ffffffffffffffffffffffffffffffffffffffff021916908373ffffffffffffffffffffffffffffffffffffffff160217905550602082015181600101555050505050565b6112f3611884565b60068260405161130391906124b1565b90815260200160405180910390206040518060a00160405290816000820160009054906101000a900473ffffffffffffffffffffffffffffffffffffffff1673ffffffffffffffffffffffffffffffffffffffff1673ffffffffffffffffffffffffffffffffffffffff16815260200160018201805480602002602001604051908101604052809291908181526020016000905b8282101561142957838290600052602060002090600202016040518060400160405290816000820160009054906101000a900473ffffffffffffffffffffffffffffffffffffffff1673ffffffffffffffffffffffffffffffffffffffff1673ffffffffffffffffffffffffffffffffffffffff16815260200160018201548152505081526020019060010190611397565b50505050815260200160028201548152602001600382015481526020016004820160009054906101000a900460ff1615151515815250509050919050565b6298968081565b611476611703565b600073ffffffffffffffffffffffffffffffffffffffff168173ffffffffffffffffffffffffffffffffffffffff1614156114e6576040517f08c379a00000000000000000000000000000000000000000000000000000000081526004016114dd90612a9c565b60405180910390fd5b6114ef81611781565b50565b6114fa611703565b600160068460405161150c91906124b1565b90815260200160405180910390206000820160009054906101000a900473ffffffffffffffffffffffffffffffffffffffff168160000160006101000a81548173ffffffffffffffffffffffffffffffffffffffff021916908373ffffffffffffffffffffffffffffffffffffffff16021790555060018201816001019080546115979291906118cb565b5060028201548160020155600382015481600301556004820160009054906101000a900460ff168160040160006101000a81548160ff02191690831515021790555090505060016006846040516115ee91906124b1565b908152602001604051809103902060040160006101000a81548160ff0219169083151502179055508060068460405161162791906124b1565b908152602001604051809103902060000160006101000a81548173ffffffffffffffffffffffffffffffffffffffff021916908373ffffffffffffffffffffffffffffffffffffffff1602179055508160068460405161168791906124b1565b908152602001604051809103902060020181905550426006846040516116ad91906124b1565b9081526020016040518091039020600301819055506009839080600181540180825580915050600190039060005260206000200160009091909190915090805190602001906116fd929190611994565b50505050565b61170b611845565b73ffffffffffffffffffffffffffffffffffffffff16611729610ea5565b73ffffffffffffffffffffffffffffffffffffffff161461177f576040517f08c379a000000000000000000000000000000000000000000000000000000000815260040161177690612b08565b60405180910390fd5b565b60008060009054906101000a900473ffffffffffffffffffffffffffffffffffffffff169050816000806101000a81548173ffffffffffffffffffffffffffffffffffffffff021916908373ffffffffffffffffffffffffffffffffffffffff1602179055508173ffffffffffffffffffffffffffffffffffffffff168173ffffffffffffffffffffffffffffffffffffffff167f8be0079c531659141344cd1fd0a4f28419497f9722a3daafe3b4186f6b6457e060405160405180910390a35050565b600033905090565b6040518060600160405280600073ffffffffffffffffffffffffffffffffffffffff16815260200160008152602001600081525090565b6040518060a00160405280600073ffffffffffffffffffffffffffffffffffffffff1681526020016060815260200160008152602001600081526020016000151581525090565b8280548282559060005260206000209060020281019282156119835760005260206000209160020282015b828111156119825782826000820160009054906101000a900473ffffffffffffffffffffffffffffffffffffffff168160000160006101000a81548173ffffffffffffffffffffffffffffffffffffffff021916908373ffffffffffffffffffffffffffffffffffffffff160217905550600182015481600101555050916002019190600201906118f6565b5b5090506119909190611a1a565b5090565b8280546119a09061294d565b90600052602060002090601f0160209004810192826119c25760008555611a09565b82601f106119db57805160ff1916838001178555611a09565b82800160010185558215611a09579182015b82811115611a085782518255916020019190600101906119ed565b5b509050611a169190611a60565b5090565b5b80821115611a5c57600080820160006101000a81549073ffffffffffffffffffffffffffffffffffffffff0219169055600182016000905550600201611a1b565b5090565b5b80821115611a79576000816000905550600101611a61565b5090565b6000819050919050565b611a9081611a7d565b82525050565b6000602082019050611aab6000830184611a87565b92915050565b6000604051905090565b600080fd5b600080fd5b600073ffffffffffffffffffffffffffffffffffffffff82169050919050565b6000611af082611ac5565b9050919050565b611b0081611ae5565b8114611b0b57600080fd5b50565b600081359050611b1d81611af7565b92915050565b600060208284031215611b3957611b38611abb565b5b6000611b4784828501611b0e565b91505092915050565b611b5981611ae5565b82525050565b6000606082019050611b746000830186611b50565b611b816020830185611a87565b611b8e6040830184611a87565b949350505050565b600080fd5b600080fd5b6000601f19601f8301169050919050565b7f4e487b7100000000000000000000000000000000000000000000000000000000600052604160045260246000fd5b611be982611ba0565b810181811067ffffffffffffffff82111715611c0857611c07611bb1565b5b80604052505050565b6000611c1b611ab1565b9050611c278282611be0565b919050565b600067ffffffffffffffff821115611c4757611c46611bb1565b5b611c5082611ba0565b9050602081019050919050565b82818337600083830152505050565b6000611c7f611c7a84611c2c565b611c11565b905082815260208101848484011115611c9b57611c9a611b9b565b5b611ca6848285611c5d565b509392505050565b600082601f830112611cc357611cc2611b96565b5b8135611cd3848260208601611c6c565b91505092915050565b611ce581611a7d565b8114611cf057600080fd5b50565b600081359050611d0281611cdc565b92915050565b60008060408385031215611d1f57611d1e611abb565b5b600083013567ffffffffffffffff811115611d3d57611d3c611ac0565b5b611d4985828601611cae565b9250506020611d5a85828601611cf3565b9150509250929050565b611d6d81611ae5565b82525050565b611d7c81611a7d565b82525050565b606082016000820151611d986000850182611d64565b506020820151611dab6020850182611d73565b506040820151611dbe6040850182611d73565b50505050565b6000606082019050611dd96000830184611d82565b92915050565b600080600080600060a08688031215611dfb57611dfa611abb565b5b600086013567ffffffffffffffff811115611e1957611e18611ac0565b5b611e2588828901611cae565b9550506020611e3688828901611cf3565b9450506040611e4788828901611b0e565b9350506060611e5888828901611cf3565b9250506080611e6988828901611cf3565b9150509295509295909350565b600060208284031215611e8c57611e8b611abb565b5b6000611e9a84828501611cf3565b91505092915050565b600081519050919050565b600082825260208201905092915050565b6000819050602082019050919050565b600081519050919050565b600082825260208201905092915050565b6000819050602082019050919050565b604082016000820151611f116000850182611d64565b506020820151611f246020850182611d73565b50505050565b6000611f368383611efb565b60408301905092915050565b6000602082019050919050565b6000611f5a82611ecf565b611f648185611eda565b9350611f6f83611eeb565b8060005b83811015611fa0578151611f878882611f2a565b9750611f9283611f42565b925050600181019050611f73565b5085935050505092915050565b60008115159050919050565b611fc281611fad565b82525050565b600060a083016000830151611fe06000860182611d64565b5060208301518482036020860152611ff88282611f4f565b915050604083015161200d6040860182611d73565b5060608301516120206060860182611d73565b5060808301516120336080860182611fb9565b508091505092915050565b600061204a8383611fc8565b905092915050565b6000602082019050919050565b600061206a82611ea3565b6120748185611eae565b93508360208202850161208685611ebf565b8060005b858110156120c257848403895281516120a3858261203e565b94506120ae83612052565b925060208a0199505060018101905061208a565b50829750879550505050505092915050565b60006040820190506120e96000830185611a87565b81810360208301526120fb818461205f565b90509392505050565b61210d81611fad565b82525050565b600060a0820190506121286000830188612104565b6121356020830187612104565b6121426040830186611a87565b61214f6060830185611a87565b61215c6080830184611a87565b9695505050505050565b600060208201905061217b6000830184611b50565b92915050565b600081519050919050565b600082825260208201905092915050565b6000819050602082019050919050565b6060820160008201516121c36000850182611d64565b5060208201516121d66020850182611d73565b5060408201516121e96040850182611d73565b50505050565b60006121fb83836121ad565b60608301905092915050565b6000602082019050919050565b600061221f82612181565b612229818561218c565b93506122348361219d565b8060005b8381101561226557815161224c88826121ef565b975061225783612207565b925050600181019050612238565b5085935050505092915050565b60006040820190506122876000830185611a87565b81810360208301526122998184612214565b90509392505050565b6000602082840312156122b8576122b7611abb565b5b600082013567ffffffffffffffff8111156122d6576122d5611ac0565b5b6122e284828501611cae565b91505092915050565b60006080820190506123006000830187611b50565b61230d6020830186611a87565b61231a6040830185611a87565b6123276060830184612104565b95945050505050565b60008060006060848603121561234957612348611abb565b5b600084013567ffffffffffffffff81111561236757612366611ac0565b5b61237386828701611cae565b935050602061238486828701611cf3565b925050604061239586828701611b0e565b9150509250925092565b600060a0830160008301516123b76000860182611d64565b50602083015184820360208601526123cf8282611f4f565b91505060408301516123e46040860182611d73565b5060608301516123f76060860182611d73565b50608083015161240a6080860182611fb9565b508091505092915050565b6000602082019050818103600083015261242f818461239f565b905092915050565b600081519050919050565b600081905092915050565b60005b8381101561246b578082015181840152602081019050612450565b8381111561247a576000848401525b50505050565b600061248b82612437565b6124958185612442565b93506124a581856020860161244d565b80840191505092915050565b60006124bd8284612480565b915081905092915050565b600082825260208201905092915050565b7f646576696365206973206e6f742076616c696400000000000000000000000000600082015250565b600061250f6013836124c8565b915061251a826124d9565b602082019050919050565b6000602082019050818103600083015261253e81612502565b9050919050565b7f4e487b7100000000000000000000000000000000000000000000000000000000600052601160045260246000fd5b600061257f82611a7d565b91507fffffffffffffffffffffffffffffffffffffffffffffffffffffffffffffffff8214156125b2576125b1612545565b5b600182019050919050565b60006125c882612437565b6125d281856124c8565b93506125e281856020860161244d565b6125eb81611ba0565b840191505092915050565b6000606082019050818103600083015261261081866125bd565b905061261f6020830185611a87565b61262c6040830184611a87565b949350505050565b7f61646472657373206973206e6f742076616c6964000000000000000000000000600082015250565b600061266a6014836124c8565b915061267582612634565b602082019050919050565b600060208201905081810360008301526126998161265d565b9050919050565b7f74784944206973206e6f742076616c6964000000000000000000000000000000600082015250565b60006126d66011836124c8565b91506126e1826126a0565b602082019050919050565b60006020820190508181036000830152612705816126c9565b9050919050565b7f726577617264206861732066696e697368656400000000000000000000000000600082015250565b60006127426013836124c8565b915061274d8261270c565b602082019050919050565b6000602082019050818103600083015261277181612735565b9050919050565b600061278382611a7d565b915061278e83611a7d565b9250827fffffffffffffffffffffffffffffffffffffffffffffffffffffffffffffffff038211156127c3576127c2612545565b5b828201905092915050565b600082825260208201905092915050565b50565b60006127ef6000836127ce565b91506127fa826127df565b600082019050919050565b600060808201905061281a6000830186611b50565b6128276020830185611a87565b6128346040830184611a87565b8181036060830152612845816127e2565b9050949350505050565b7f696e76616c696420696e64657800000000000000000000000000000000000000600082015250565b6000612885600d836124c8565b91506128908261284f565b602082019050919050565b600060208201905081810360008301526128b481612878565b9050919050565b60006128c682611a7d565b91506128d183611a7d565b9250828210156128e4576128e3612545565b5b828203905092915050565b7f4e487b7100000000000000000000000000000000000000000000000000000000600052603260045260246000fd5b7f4e487b7100000000000000000000000000000000000000000000000000000000600052602260045260246000fd5b6000600282049050600182168061296557607f821691505b602082108114156129795761297861291e565b5b50919050565b60008190508160005260206000209050919050565b600081546129a18161294d565b6129ab8186612442565b945060018216600081146129c657600181146129d757612a0a565b60ff19831686528186019350612a0a565b6129e08561297f565b60005b83811015612a02578154818901526001820191506020810190506129e3565b838801955050505b50505092915050565b6000612a1f8284612994565b915081905092915050565b7f4f776e61626c653a206e6577206f776e657220697320746865207a65726f206160008201527f6464726573730000000000000000000000000000000000000000000000000000602082015250565b6000612a866026836124c8565b9150612a9182612a2a565b604082019050919050565b60006020820190508181036000830152612ab581612a79565b9050919050565b7f4f776e61626c653a2063616c6c6572206973206e6f7420746865206f776e6572600082015250565b6000612af26020836124c8565b9150612afd82612abc565b602082019050919050565b60006020820190508181036000830152612b2181612ae5565b905091905056fea2646970667358221220b6fc295cd3a21c2cf5df10ebed83b359ef66a1cac2a6c8078c8732840016465164736f6c63430008090033",
  "linkReferences": {},
  "deployedLinkReferences": {}
}